:060000000A128A1110280B
:10000800FE00030EF9000408FA000A08FB007F0846
:10001800FC000A128A11C9280A128A1113288313AC
:10002800B930FD001030FE00BD30FF00A030840064
:100038000A168A1156200A128A11831790308400F2
:10004800E0300A168A1132200A128A118313B93055
:100058008400C5300A168A1132200A128A11ED016D
:10006800EE01EF01FD0183010A128A15302C83127B
:100078000313A4007030A6008030A50010302402BD
:10008800031C472848284A280F30A40024082607BC
:10009800A60007150716071387170815081608136B
:1000A800881707110811073083120313A100A10B49
:1000B8005B2800008312031307150815871388139C
:1000C80007120812A201A30100300A168A1124207F
:1000D8000A128A11013083120313A2070318A30A14
:1000E8000030A3072308803AFF0080307F02031DF9
:1000F8007F2828302202031C82288328682807309A
:1001080083120313A100A10B872800008312031395
:1001180007160816871788170712081226080A16DE
:100128008A1124200A128A118312031326080A1638
:100138008A1124200A128A11073083120313A1009E
:10014800A10BA42800008312031307160816071230
:10015800081225080A168A1124200A128A11831205
:10016800031325080A168A1124200A128A11073057
:1001780083120313A100A10BBF28000083120313ED
:10018800071608168713881308008B1CCC28CD285F
:10019800D2280A128A156A230A128A1183120313B3
:1001A8000C1CD728D828DD280A168A1177210A12AC
:1001B8008A11831203130C1FE228E328E8280A1285
:1001C8008A15B0240A128A110B1CEB28EC28F12896
:1001D8000A128A15B8230A128A117C08FF007B08C4
:1001E8008A007A088400790E8300FE0E7E0E0900CC
:10020000FF1B0A2983137F1883170008840A031928
:10021000FF0A08007F087F398A000408840A03194E
:10022000FF0A820008341C343E347F3400343034FA
:100230003534483440343034453429341134213491
:100240007D347D3409340534053479347D34093402
:10025000113421347D343834443444343834443413
:100260007E34013429342E34103430344A344D3441
:1002700049343034603450344834503460341E349F
:1002800004340434383440343E3449344934493435
:100290003E346234143408341034603440343C3416
:1002A000203420341C3408347C3404347C3402344C
:1002B0003834443444343C340434413463345534A5
:1002C0004934413410340834783408340434183450
:1002D00024347E34243418345E346134013461347F
:1002E0005E34783414341534143478343834443467
:1002F00045343C344034783415341434153478346F
:100300003834453444343D3440343C34433442344E
:1003100043343C34383445344434453438343C3444
:100320004134403441343C34383442344034423433
:100330003834083408342A341C34083420347E34E9
:1003400002340234023412341934153412340034B5
:1003500048347E34493441344234013412347C34DC
:1003600012340134003400340034003400340834D2
:10037000243412340834003400340434083404348F
:10038000003414343434363416341434073402341C
:10039000673412340E34063436340834363430348C
:1003A000143422342A342A343E3400341C340434C5
:1003B00000340034003408343E3400340034003457
:1003C00000343E34083400341C3408343E340834DD
:1003D0001C343E342A3422343E3400340034003499
:1003E0000E34003400340034043404340434003453
:1003F00000341834003418340034003430340834F5
:10040000063400343E3422342A3422343E3422343A
:1004100022343E34203420342A342A342A342A34F4
:100420002E342A342A342A3422343E340E3408340A
:10043000083408343E342E342A342A342A342A34F8
:100440003A342A342A342A343A3402340234023414
:1004500002343E343E342A342A342A343E342E3494
:100460002A342A342A342E340034243424343834C0
:100470000034003400347F3400340034083408344D
:100480001C34003400343C342434003424343C34F0
:1004900000341C3408340834003406340234223466
:1004A0001C3400343E3408342A3422343E3436348A
:1004B0001434143414342234143422342A342234BC
:1004C00014340E3400341C34003438342A341A34D2
:1004D0000A34063402341E3420341E3402343E34CE
:1004E000383428343E34283424343E3420342634FE
:1004F00012340E3422342A342A342A34223400347A
:10050000083404343E340034283428342834243465
:100510003E3422342234223422343E34003408342F
:1005200010343E340034383424342234223400343D
:100530001C34223418340634383438342634223407
:10054000263438341C342234263420343E343E34AD
:100550002234223402340E34223412340A34063463
:10056000023412342434083410343E340834123443
:100570003E34103408343E342034283424343E349D
:10058000023404343834043402343E342234223405
:1005900022343E3430342C3422342C3430340E3473
:1005A0001234263410340E343034243424342434B9
:1005B0003E340034143477340034003400340634CC
:1005C00008343034003400340034773414340034C8
:1005D000003408340C34083400340034203420341F
:1005E0002034003400340C3414340034003400342B
:1005F0003434103410342434183424342C34243457
:1006000018341C340034183400343834143414349E
:1006100034340C3404341C3420341C3404343C345E
:10062000383428343C34283428343C3420342C34B6
:1006300014340C3424342C342C342C34243400342E
:10064000083404343C340034283428342834243426
:100650003C3400342434243424343C340034103406
:1006600020343C34003430342834243424340034EE
:100670001834243410340C34303430342C342434D2
:100680002C343034183424342C3420343C343C346E
:100690002434243404340C340434243414340C341A
:1006A00004342434083410343C34003410342034FE
:1006B0003C34203410343C342034283424343C344A
:1006C000043408343034083404343C3424342434BE
:1006D00024343C34303428342434283430340C343A
:1006E0001434203410340C34203428342834283482
:1006F0003C34003414347F34003400343034083453
:10070000073408343034003400347F341434003477
:10071000083408340034083408342A3455342A3470
:1007200055342A3408341C343E347F340034303499
:10073000353448344034303445342934113421348C
:100740007D347D3409340534053479347D340934FD
:10075000113421347D34383444344434383444340E
:100760007E34013429342E34103430344A344D343C
:1007700049343034603450344834503460341E349A
:1007800004340434383440343E3449344934493430
:100790003E346234143408341034603440343C3411
:1007A000203420341C3408347C3404347C34023447
:1007B0003834443444343C340434413463345534A0
:1007C000493441341034083478340834043418344B
:1007D00024347E34243418345E346134013461347A
:1007E0005E34783414341534143478343834443462
:1007F00045343C344034783415341434153478346A
:100800003834453444343D3440343C344334423449
:1008100043343C34383445344434453438343C343F
:100820004134403441343C3438344234403442342E
:100830003834083408342A341C34083420347E34E4
:1008400002340234023412341934153412340034B0
:1008500048347E34493441344234013412347C34D7
:1008600012340134003400340034003400340034D5
:1008700000345F3400340034003403340034033473
:10088000003414347F3414347F34143424342A3440
:100890007F342A34123423341334083464346234F9
:1008A0003634493456342034503400340B34073451
:1008B00000340034003400343E3441340034003419
:1008C00041343E340034003408342A341C342A3491
:1008D0000834083408343E340834083400345834BA
:1008E0003834003400340834083408340834083408
:1008F00000343034303400340034203410340834C0
:10090000043402343E345134493445343E340034E6
:1009100042347F34403400346234513449344934F1
:10092000463422344134493449343634183414348A
:1009300012347F3410342734453445344534393447
:100940003C344A3449344934303401347134093444
:1009500005340334363449344934493437340634A1
:100960004934493429341E340034363436340034A2
:10097000003400345B343B34003400340034083439
:1009800014342234413414341434143414341434EC
:1009900041342234143408340034023401345134E4
:1009A000093406343E3441345D3455341E34323417
:1009B00014340834143426342234223422343C349F
:1009C00020340034223412343C34003402340234F3
:1009D00002343E3402343A340234023402343C34B9
:1009E0000034023402343C340034003402343E34E7
:1009F00002340034223424342834383426341E346B
:100A00006034423442343C340034003402340E3416
:100A1000003400342234223422343C340034223472
:100A200022343C34003402343C34023422343C342A
:100A300000340734443424341C342C342A34223413
:100A400022343C347A34023422341C3400340034EE
:100A5000023402347C34003402340E343234223412
:100A60001C3422342434283428341E340034003416
:100A700000340034003400340034003400340034D6
:100A800002343E34023402343C3402340434083438
:100A9000783406340034023402347E3400340234B4
:100AA000023402343C3400343E3428342E342034B2
:100AB0001E34003400347F34413441340234043471
:100AC000083410342034413441347F34003400344D
:100AD000043402347F34023404344034403440342B
:100AE00040344034003407340B340034003438349C
:100AF000443444343C3440347F3448344434443403
:100B00003834383444344434443444343834443449
:100B1000443448347F3438345434543454340834EE
:100B200008347E3409340234003408341434543424
:100B300054343C347F34083404340434783400347E
:100B400044347D34403400342034403444343D3423
:100B5000003400347F3410342834443400344134B9
:100B60007F34403400347834043418340434783416
:100B70007C34083404340434783438344434443411
:100B8000443438347C341434243424341834183441
:100B9000243414347C34403400347C340834043439
:100BA00004344834543454345434203404343E34FB
:100BB0004434203400343C344034403420347C34D9
:100BC0001C342034403420341C343C344034303421
:100BD00040343C344434283410342834443404340D
:100BE00048343034083404344434643454344C3499
:100BF0004434003408343634413400340034003492
:100C0000773400340034003441343634083400344E
:100C1000083404340834103408342A3455342A345F
:100C200055342A3408341C343E347F340034303494
:100C30003534483440343034453429341134213487
:100C40007D347D3409340534053479347D340934F8
:100C5000113421347D343834443444343834443409
:100C60007E34013429342E34103430344A344D3437
:100C700049343034603450344834503460341E3495
:100C800004340434383440343E344934493449342B
:100C90003E346234143408341034603440343C340C
:100CA000203420341C3408347C3404347C34023442
:100CB0003834443444343C3404344134633455349B
:100CC0004934413410340834783408340434183446
:100CD00024347E34243418345E3461340134613475
:100CE0005E3478341434153414347834383444345D
:100CF00045343C3440347834153414341534783465
:100D00003834453444343D3440343C344334423444
:100D100043343C34383445344434453438343C343A
:100D20004134403441343C34383442344034423429
:100D30003834083408342A341C34083420347E34DF
:100D400002340234023412341934153412340034AB
:100D500048347E34493441344234013412347C34D2
:100D600012340134003400340034003400340034D0
:100D70005F3400340034003400340334003403346E
:100D8000003414347F3414347F34143424342A343B
:100D90007F342A34123423341334083464346234F4
:100DA00036344934563420345034003400340C3452
:100DB00000340034003400343E3441340034003414
:100DC00041343E340034003408342A341C342A348C
:100DD0000834083408343E3408340834003400340D
:100DE00058343834003400340034103410340034B3
:100DF00000340034303430340034203410340834BB
:100E000004340234003400343034303400340034DC
:100E100000343E340034003400347E340834083466
:100E200006347E3408340E34083406340034343446
:100E30004A344A34003400341C34223422341C3402
:100E40000234023402347E3400340E3438346034D8
:100E500038340E3470341C3406341C347034063488
:100E6000093409347E34003400340034243400342E
:100E7000003400340034643400340034003410345E
:100E8000283444340034003414341434143400341A
:100E900000344434283410340034023401345134E2
:100EA000093406343E3441345D3455341E34003444
:100EB00001347D340134003408341034503410349B
:100EC0000C343834203438341034183408341234A4
:100ED000133412340C340034313449345E34483421
:100EE000003432344B344E344834003431344934D5
:100EF0004E344834003420342434243438347034AC
:100F000008340C340A340434003440344034383467
:100F100000340034403440343A340034083410345F
:100F2000123412340834383420343A3411341A3438
:100F300030344034443440343834203444344A3437
:100F40003C340034603440344834553478342034F0
:100F50003E34283428343034003438344C344A3465
:100F60004A346034403449345534793408341434C4
:100F7000503454340A340034203425342434383482
:100F8000383420343C3414341C343034403440344D
:100F90007E34003400341C34243424341834303487
:100FA00048344C3440347E34003438344C344B3480
:100FB0004A34003400347F34413441340234043440
:100FC000083410342034413441347F340034003448
:100FD000043402347F340234043440344034403426
:100FE00040344034003407340B34003400340034CF
:100FF000003400343F342034103410344C34103476
:101000001034103411340D341034103410341234C0
:101010001B341234103410341434523412340C345F
:1010200010341434133412340C3410341434123495
:1010300012340C3400342034243424343834003452
:1010400020342534243438340034403440343834A7
:1010500010340034403440343A34103438342034BE
:10106000383420341834383422343B3422341834A1
:10107000383428342434243418343834283424348C
:101080002534183420343E34283428343034203485
:101090003E3428342A343034203428343C343C3430
:1010A0002034203428343C343D342034203420345F
:1010B000283435341C3420342034293435341D345C
:1010C00020342C342A3411342134203420343E345A
:1010D0002034203420343034283428341034203460
:1010E00020341A3420342034103450344C345034EA
:1010F00010340034083436344134003400340034C1
:101100007734003400340034413436340834003449
:10111000083404340834103408342A3455342A345A
:1011200055342A3408341C343E347F34003430348F
:101130003534483440343034453429341134213482
:101140007D347D3409340534053479347D340934F3
:10115000113421347D343834443444343834443404
:101160007E34013429342E34103430344A344D3432
:1011700049343034603450344834503460341E3490
:1011800004340434383440343E3449344934493426
:101190003E346234143408341034603440343C3407
:1011A000203420341C3408347C3404347C3402343D
:1011B0003834443444343C34043441346334553496
:1011C0004934413410340834783408340434183441
:1011D00024347E34243418345E3461340134613470
:1011E0005E34783414341534143478343834443458
:1011F00045343C3440347834153414341534783460
:101200003834453444343D3440343C34433442343F
:1012100043343C34383445344434453438343C3435
:101220004134403441343C34383442344034423424
:101230003834083408342A341C34083420347E34DA
:1012400002340234023412341934153412340034A6
:1012500048347E34493441344234013412347C34CD
:1012600012340134003400340034003400340034CB
:1012700000345F3400340034003403340034033469
:10128000003414347F3414347F34143424342A3436
:101290007F342A34123423341334083464346234EF
:1012A0003634493456342034503400340B34073447
:1012B00000340034003400343E344134003400340F
:1012C00041343E340034003408342A341C342A3487
:1012D0000834083408343E340834083400345834B0
:1012E00038340034003408340834083408340834FE
:1012F00000343034303400340034203410340834B6
:10130000043402343E345134493445343E340034DC
:1013100042347F34403400346234513449344934E7
:101320004634223441344934493436341834143480
:1013300012347F341034273445344534453439343D
:101340003C344A344934493430340134713409343A
:101350000534033436344934493449343734063497
:101360004934493429341E34003436343634003498
:10137000003400345B343B3400340034003408342F
:1013800014342234413414341434143414341434E2
:1013900041342234143408340034023401345134DA
:1013A000093406343E3441345D3455341E347E34C1
:1013B0000934093409347E347E344934493449349B
:1013C00036343E3441344134413422347F34413464
:1013D000413441343E347F34493449344934413412
:1013E0007F3409340934093401343E344134413402
:1013F000513432347F340834083408347F340034B4
:1014000041347F344134003420344034403440345B
:101410003F347F3408341434223441347F34403430
:101420004034403440347F3402340C3402347F344E
:101430007F340434083410347F343E344134413432
:1014400041343E347F3409340934093406343E349F
:101450004134513421345E347F3409341934293411
:101460004634263449344934493432340134013461
:101470007F34013401343F344034403440343F340D
:10148000073418346034183407347F342034183467
:1014900020347F3463341434083414346334033414
:1014A00004347834043403346134513449344534D9
:1014B0004334003400347F34413441340234043442
:1014C000083410342034413441347F340034003443
:1014D000043402347F340234043440344034403421
:1014E00040344034003407340B3400340034383492
:1014F000443444343C3440347F34483444344434F9
:10150000383438344434443444344434383444343F
:10151000443448347F3438345434543454340834E4
:1015200008347E340934023400340834143454341A
:1015300054343C347F340834043404347834003474
:1015400044347D34403400342034403444343D3419
:10155000003400347F3410342834443400344134AF
:101560007F3440340034783404341834043478340C
:101570007C34083404340434783438344434443407
:10158000443438347C341434243424341834183437
:10159000243414347C34403400347C34083404342F
:1015A00004344834543454345434203404343E34F1
:1015B0004434203400343C344034403420347C34CF
:1015C0001C342034403420341C343C344034303417
:1015D00040343C3444342834103428344434043403
:1015E00048343034083404344434643454344C348F
:1015F0004434003408343634413400340034003488
:101600007734003400340034413436340834003444
:10161000083404340834103408342A3455342A3455
:1016200055342A3400340034193400343234003450
:101630004B340034643400347D3400349634003448
:10164000AF340034C8340034E1340034FA340034A8
:10165000133401342C340134453401345E34013404
:101660007734013490340134A9340134C234013464
:10167000DB340134F43401340D34023426340234C2
:101680003F34023458340234713402348A34023420
:10169000A3340234BC340234D5340234EE34023480
:1016A00007340334203403343934033452340334DC
:1016B0006B340334843403349D340334B63403343C
:1016C000CF340334E834033401340434FE34FD34BD
:1016D000FB34F734FE30831203138F0070308E001A
:1016E0001014013083160313C1000030C2008B10A8
:1016F000080055308400A83083120313D100040879
:10170000D2000830D3005108840083130008D400AD
:10171000D10A5208840054088000D20AD30B832BCC
:101720005530CC0002300A168A113D210A128A1562
:101730005D308400A03083120313D1000408D2006E
:101740000830D3005108840083130008D400D10A64
:101750005208840054088000D20AD30BA22B5D30BB
:10176000CC0001300A168A113D210A128A150800A0
:101770002930F000F00BBA2B000083120313060E81
:101780000139F000060EF100710C0139F200720708
:101790007004FD006F087D060319CF2BD02B292C78
:1017A0007D03031DD42BD52BFD2BFF308316031394
:1017B000B2070318B30AFF30B30732083304031D1E
:1017C000E22BE32B292C0230B2000030B3003403AB
:1017D00035040319EC2BED2BF42BFF30B407031861
:1017E000B50AFF30B507F82B0430B4000030B5005F
:1017F0000130B0000030B100292C02307D06031DFD
:10180000022C032C292C013083160313B207031872
:10181000B30A0030B307043032063304031D112C21
:10182000122C292C0230B2000030B30004303406F0
:10183000350403191C2C1D2C242C0130B40703186B
:10184000B50A0030B507F82B0130B4000030B50000
:10185000F82B7D088312EF00060886000B100800A5
:101860000A168A11D6200A128A1583120313A001C0
:10187000A00AA101A201A20A00300A168A11D121F0
:101880000A128A150F300A128A113B200A128A1591
:101890000A128A1579230A128A150C30831603134B
:1018A0003F064004031D552C562C5B2C0A128A154A
:1018B00015260A128A158316031330033104031DFB
:1018C000622C632C832C0A168A11F5200A128A15C1
:1018D000831603133408653E84008B300318013EE1
:1018E00083120313FF000A128A1100210A128A15BB
:1018F000850002300A168A112C220A128A158316D4
:101900000313B001B1013708831203136E06031DE0
:101910008F2C831603133608831203136D060319E5
:10192000922C932CAA2C0A128A1532250A128A1597
:1019300001300A168A112C220A128A158312031307
:101940006E0883160313B700831203136D08831602
:101950000313B60083129F144D2C0A128A1110280B
:10196000831203131E08F800831603131E08F700E2
:10197000831203136D08F0007007143E84008B304F
:101980000318013EFF000A128A1100210A128A156B
:10199000F1000A128A1100210A128A15F200710858
:1019A000143EF30072080318013E003EF4006D0877
:1019B000F0007007123E84008B300318013EFF00D8
:1019C0000A128A1100210A128A15F1000A128A11DC
:1019D00000210A128A15F2007108EC3EF500720827
:1019E0000318013EFF3EF6007808803AF0007408C4
:1019F000803A7002031DFE2C73087702031C012D30
:101A0000022D122D2830831203136D066E04031964
:101A10000A2D0B2D122D0130ED070318EE0A0030B0
:101A2000EE072E2D7608803AF0007808803A700292
:101A3000031D1C2D77087502031C1F2D202D2E2D34
:101A4000831203136D086E040319272D282D2E2DE4
:101A5000FF30ED070318EE0AFF30EE078312031381
:101A60000C130800831203136E08803AFF008030C5
:101A70007F02031D3D2D0A306D020318402D412DBC
:101A80004A2D831203136D08303ED0005008CC005D
:101A9000CD01992D831203136E08803AFF00803028
:101AA0007F02031D552D14306D020318582D592D3A
:101AB000632D313083120313CC006D08263ED00015
:101AC0005008CD00992D831203136E08803AFF0051
:101AD00080307F02031D6E2D1E306D020318712DA4
:101AE000722D7A2D323083120313CC006D081C3E08
:101AF000D000602D831203136E08803AFF008030FF
:101B00007F02031D852D28306D020318882D892D35
:101B1000912D333083120313CC006D08123ED00098
:101B2000602D343083120313CC006D08083ED000C2
:101B3000602DCE01CF01831203134E084C3E84006A
:101B400083130008031DA52DA62DC62D4E034F049B
:101B5000031DAB2DAC2DFB2D8316031344088312FC
:101B60000313A70083160313430883120313A6006D
:101B70002030A8000530A9000030AA00AB01AB0A54
:101B80000A168A1198220A128A15FB2D831603134E
:101B9000440883120313A700831603134308831218
:101BA0000313A6004E084C3E84000008A8004E080F
:101BB000043EA9004F080318013E003EAA00AB01F5
:101BC000AB0A0A168A1198220A128A15013083126A
:101BD0000313CE070318CF0A0030CF074F08803A0F
:101BE000FF0080307F02031DF72D02304E02031CE0
:101BF000FA2DFB2D9B2D8316031344088312031328
:101C0000A70083160313430883120313A600203092
:101C1000A8000730A9000030AA00AB01AB0A0A16E1
:101C20008A1198220A128A150800003083160313BD
:101C3000390583120313E5000E30831603133A05AA
:101C400083120313E6000030831603133B0583124F
:101C50000313E7000030831603133C0583120313BC
:101C6000E80004306606650467046804031D392E25
:101C70003A2EE02F20308316031339058312031305
:101C8000E9000530831603133A0583120313EA00B3
:101C90000030831603133B0583120313EB0000305F
:101CA000831603133C0583120313EC0020306906EE
:101CB000053003196A066B046C04031D602E612E47
:101CC0008E2E831203136E08803AFF0080307F024D
:101CD000031D6C2E28306D0203186F2E702E752E8A
:101CE0008312031307108714882E831203136E08C0
:101CF000803AFF0080307F02031D802E28306D0265
:101D0000031C832E842E882E83120313071487143A
:101D10005930831203138F00D8308E001030831691
:101D20000313390583120313E900053083160313E7
:101D30003A0583120313EA000030831603133B05B0
:101D400083120313EB000030831603133C05831248
:101D50000313EC0010306906053003196A066B04A2
:101D60006C04031DB42EB52EE22E831203136E08ED
:101D7000803AFF0080307F02031DC02E01306D02CB
:101D8000031CC32EC42EC92E8312031307148710FD
:101D9000DC2E831203136E08803AFF0080307F022E
:101DA000031DD42E01306D020318D72ED82EDC2E41
:101DB00083120313071487145930831203138F00FF
:101DC000D8308E0090308316031339058312031325
:101DD000E9000430831603133A0583120313EA0063
:101DE0000030831603133B0583120313EB0000300E
:101DF000831603133C0583120313EC00903069062D
:101E0000043003196A066B046C04031D082F092FA4
:101E1000132F013083160313B4000030B5000130D6
:101E2000B0000030B1000830831603133905831267
:101E30000313E9000530831603133A0583120313D5
:101E4000EA000030831603133B0583120313EB00F3
:101E50000030831603133C0583120313EC00083093
:101E60006906053003196A066B046C04031D392FDB
:101E70003A2F442F023083160313B4000030B5000C
:101E80000130B0000030B100A030831603133905D3
:101E900083120313E9000430831603133A058312F7
:101EA0000313EA000030831603133B058312031368
:101EB000EB000030831603133C0583120313EC0080
:101EC000A0306906043003196A066B046C04031D14
:101ED0006A2F6B2F752F033083160313B400003065
:101EE000B5000130B0000030B10088308316031314
:101EF000390583120313E9000430831603133A05EE
:101F000083120313EA000030831603133B05831288
:101F10000313EB000030831603133C0583120313F5
:101F2000EC0088306906043003196A066B046C04FF
:101F3000031D9B2F9C2FB12F043083160313B40075
:101F40000030B5000130B0000030B1000A128A152F
:101F500079230A128A1501300A168A112C220A12D4
:101F60008A15843083160313390583120313E9009D
:101F70000430831603133A0583120313EA0000307A
:101F8000831603133B0583120313EB000030831603
:101F900003133C0583120313EC00843069060430FC
:101FA00003196A066B046C04031DD72FD82FE02F8A
:101FB000013083160313C3070318C40A0030C40793
:101FC000831603134408803AFF0080307F02031D0C
:101FD000EB2F07304302031CEE2FEF2FF32F831656
:101FE0000313C301C401003083160313BC00003087
:101FF000BB000030BA000030B900BF01C0010800CA
:1020480083120313A00020089300080083120313CF
:1020580090101008CF3920389000080064008001E3
:10206800840A04060319003404063328831603136C
:102078000F1070308F048F150F1D432844284028F7
:102088000800831603130915831603178817831688
:1020980003130614061686161D1108007E088A000A
:1020A8007F0882000A168A1152200A168A118000B7
:1020B800840A04087D0603190034FF0A0319FE0A7E
:1020C800562883160317880189018316031385018F
:1020D800860187018801890183120313850186011E
:1020E800033087008801890108000B108B158316BF
:1020F80003130C17831203130C13831603131616FA
:10210800961601130B168B100C14831203130C1064
:102118000B178B17080083120313A200A101221CBE
:10212800962897289B282008FF007F08A1070310FE
:10213800A00D0310A20C2208031DA328A42893288D
:1021480021080800831203131F083F3980389F00B5
:10215800831603131F129F12831203131F08C33918
:102168001C389F00831603139F17831203131F1431
:10217800080056344F344C343A3430342034203448
:10218800203449344E345034553454343A3430348D
:102198002034013400340334003401340034323440
:1021A800003430340A168A113A200A168A110A169F
:1021B8008A1165200A168A110A168A1145200A16FC
:1021C8008A110A168A1179200A168A110A168A11A2
:1021D8002A200A168A110A168A11A6200A168A11B6
:1021E8000800831603133408303E83120313CC000F
:1021F80083160313440883120313A70083160313DB
:10220800430883120313A6004C08A8000630A9004F
:102218000030AA000230AB000A168A1198220A166A
:102228008A11080083120313A401A501201C1D298B
:102238001E2924292208A4070318A50A2308A5078C
:1022480001300310A20DA30DFF3E031D2529013007
:102258000310A10CA00CFF3E031D2C29200821040B
:10226800031D372938291A292508A1002408A000A8
:10227800080083120313CE00CF01D0018316031385
:10228800440883120313A700831603134308831219
:102298000313A6004F084C07CD004D088400831394
:1022A8000008A8005008AA004F08A9004E08AB0073
:1022B8000A168A1198220A168A110130831203130A
:1022C800CF070318D00A0030D0075008803AFF0023
:1022D80080307F02031D722908304F02031C7529C4
:1022E8007629422908008316031341034204031D7B
:1022F8007E297F29BF293908F0003A08F1003B08F8
:10230800F2003C08F30001300310F00DF10DF20D5E
:10231800F30DFF3E031D88297308BC007208BB003B
:102328007108BA007008B9008312031306189D29B2
:102338009E29B4290130831603133904F0000030B4
:102348003A04F10000303B04F20000303C04F30092
:102358007308BC007208BB007108BA007008B900A5
:10236800013083160313BF070318C00A0030C007E3
:10237800C101C201CE29BF01C0010030BC0000303C
:10238800BB000030BA000030B900831203131010EC
:102398000714871483120C10080083120313A30078
:1023A80014082306F03923069400831603138712B2
:1023B80007120430831203132302031CE429E529BE
:1023C800F6298316031394138715831203138719A9
:1023D800EE29F229831203131416F5298312031325
:1023E8001412052A200C83160313031C94130318D4
:1023F8009417871183120313210C031C141203185A
:102408001416220C83160313031C14130318141731
:102418008312031321030319122A132A172A871D6B
:10242800162A172A292A83160313140EFF00FF0CF5
:102438007F0C0139FF000130FF06FF0EFF0DFF0D75
:1024480014087F06BF397F0694008312941608008B
:1024580083120313A2002203031D332A342A632A9A
:102468000712A301A401831203132308B83E8400B2
:10247800831700080A168A1124200A168A110130C7
:1024880083120313A3070318A40A0030A40724081F
:10249800803AFF0080307F02031D542A283023022F
:1024A800031C572A582A372A073083120313A1001E
:1024B800A10B5C2A0000831203130716972A023027
:1024C8002206031D682A692A972A0812A501A6016F
:1024D800831203132508903E8400831700080A1608
:1024E8008A1124200A168A11013083120313A507C2
:1024F8000318A60A0030A6072608803AFF00803095
:102508007F02031D892A28302502031C8C2A8D2A64
:102518006C2A073083120313A100A10B912A000033
:1025280083120313081608008312031326082704CE
:10253800031D9F2AA02AF22B2B03031DA42AA52AD8
:10254800FC2AB401B501831203132808AC00AD01BD
:102558002C08A0002D08A1000530A2000030A3001F
:102568000A168A1116210A168A1192308312031349
:10257800AE008830AF0020082E07B00021080318ED
:10258800210A2F07B10034083007840035080318E2
:10259800350A3107FF000A128A1100210A168A112A
:1025A800B2000530A00029080A168A118F200A16E1
:1025B8008A11B83E831203133407B300330884002A
:1025C8003208831780000130B4070318B50A0030B9
:1025D800B5073508803AFF0080307F02031DF62AD0
:1025E80005303402031CF92AFA2AA72AFF2FFF2FE5
:1025F80002302B06031D012B022B582BB601B70105
:10260800831203132808AC00AD012C08A0002D0884
:10261800A1000530A2000030A3000A168A11162175
:102628000A168A11923083120313AE008830AF0065
:1026380020082E07B00021080318210A2F07B1002F
:1026480036083007840037080318370A3107FF00B7
:102658000A128A1100210A168A11B2000530A00058
:1026680029080A168A118F200A168A11903E8312A9
:1026780003133607B3003308840032088317800039
:102688000130B6070318B70A0030B7073708803A91
:10269800FF0080307F02031D532B05303602031CD8
:1026A800562B572B042BFF2F03302B06031D5D2BB6
:1026B8005E2BFB2AC401C501831203132808AC0052
:1026C800AD012C08A0002D08A1000530A2000030A3
:1026D800A3000A168A1116210A168A11923083124B
:1026E8000313AE008830AF0020082E07B000210881
:1026F8000318210A2F07B100440830078400450851
:102708000318450A3107FF000A128A1100210A1628
:102718008A11B2000530A00029080A168A118F20F4
:102728000A168A11B83E831203134407B30033080C
:1027380084003208831780002808AC00AD012C08FB
:10274800A0002D08A1000530A2000030A3000A1641
:102758008A1116210A168A11923083120313AE00C9
:102768008830AF0020082E07B00021080318210A7E
:102778002F07B10044083007840045080318450AAC
:102788003107FF000A128A1100210A168A11B200C5
:102798000530A00029080A168A118F200A168A1106
:1027A800903E831203134407B300330884003208B1
:1027B800831780000130C4070318C50A0030C50715
:1027C8004508803AFF0080307F02031DED2B05305D
:1027D8004402031CF02BF12B602BFF2F023026063E
:1027E8002704031DF82BF92B4A2D2B03031DFD2B62
:1027F800FE2B542CB801B901831203132808AC002E
:10280800AD012C08A0002D08A1000530A200003061
:10281800A3000A168A1116210A168A111230831289
:102828000313AE008630AF0020082E07B000210841
:102838000318210A2F07B100380830078400390827
:102848000318390A3107FF000A128A1100210A16F3
:102858008A11B2000530A00029080A168A118F20B3
:102868000A168A11B83E831203133807B3003308D7
:1028780084003208831780000130B8070318B90AAA
:102888000030B9073908803AFF0080307F02031D05
:102898004F2C05303802031C522C532C002CFF2FD0
:1028A80002302B06031D592C5A2CB02CBA01BB013F
:1028B800831203132808AC00AD012C08A0002D08D2
:1028C800A1000530A2000030A3000A168A111621C3
:1028D8000A168A11123083120313AE008630AF0035
:1028E80020082E07B00021080318210A2F07B1007D
:1028F8003A08300784003B0803183B0A3107FF00F9
:102908000A128A1100210A168A11B2000530A000A5
:1029180029080A168A118F200A168A11903E8312F6
:1029280003133A07B3003308840032088317800082
:102938000130BA070318BB0A0030BB073B08803ACE
:10294800FF0080307F02031DAB2C05303A02031CC8
:10295800AE2CAF2C5C2CFF2F03302B06031DB52C9F
:10296800B62CFB2AC601C701831203132808AC0042
:10297800AD012C08A0002D08A1000530A2000030F0
:10298800A3000A168A1116210A168A111230831218
:102998000313AE008630AF0020082E07B0002108D0
:1029A8000318210A2F07B10046083007840047089A
:1029B8000318470A3107FF000A128A1100210A1674
:1029C8008A11B2000530A00029080A168A118F2042
:1029D8000A168A11B83E831203134607B300330858
:1029E80084003208831780002808AC00AD012C0849
:1029F800A0002D08A1000530A2000030A3000A168F
:102A08008A1116210A168A11123083120313AE0096
:102A18008630AF0020082E07B00021080318210ACD
:102A28002F07B10046083007840047080318470AF3
:102A38003107FF000A128A1100210A168A11B20012
:102A48000530A00029080A168A118F200A168A1153
:102A5800903E831203134607B300330884003208FC
:102A6800831780000130C6070318C70A0030C7075C
:102A78004708803AFF0080307F02031D452D05304E
:102A88004602031C482D492DB82CFF2F043026067A
:102A98002704031D502D512DA42E2B03031D552D46
:102AA800562DAC2DBC01BD01831203132808AC00C0
:102AB800AD012C08A0002D08A1000530A2000030AF
:102AC800A3000A168A1116210A168A119230831257
:102AD8000313AE008330AF0020082E07B000210892
:102AE8000318210A2F07B1003C08300784003D086D
:102AF80003183D0A3107FF000A128A1100210A163D
:102B08008A11B2000530A00029080A168A118F2000
:102B18000A168A11B83E831203133C07B300330820
:102B280084003208831780000130BC070318BD0AEF
:102B38000030BD073D08803AFF0080307F02031D4A
:102B4800A72D05303C02031CAA2DAB2D582DFF2FB5
:102B580002302B06031DB12DB22D092EBE01BF0177
:102B68003F08803AFF0080307F02031DBD2D0530ED
:102B78003E02031CC02DC12DC22DFF2F831203134B
:102B88002808AC00AD012C08A0002D08A1000530D4
:102B9800A2000030A3000A168A1116210A168A110B
:102BA800923083120313AE008330AF0020082E0743
:102BB800B00021080318210A2F07B1003E0830078A
:102BC80084003F0803183F0A3107FF000A128A11E0
:102BD80000210A168A11B2000530A00029080A1639
:102BE8008A118F200A168A11903E831203133E071A
:102BF800B300330884003208831780000130BE0711
:102C08000318BF0A0030BF07B42D03302B06031D7D
:102C18000E2E0F2EFB2AC801C9014908803AFF0071
:102C280080307F02031D1A2E05304802031C1D2E1A
:102C38001E2E1F2EFF2F831203132808AC00AD0190
:102C48002C08A0002D08A1000530A2000030A30028
:102C58000A168A1116210A168A1192308312031352
:102C6800AE008330AF0020082E07B00021080318FB
:102C7800210A2F07B10048083007840049080318C3
:102C8800490A3107FF000A128A1100210A168A111F
:102C9800B2000530A00029080A168A118F200A16EA
:102CA8008A11B83E831203134807B300330884001F
:102CB8003208831780002808AC00AD012C08A0005A
:102CC8002D08A1000530A2000030A3000A168A11C1
:102CD80016210A168A11923083120313AE0083302C
:102CE800AF0020082E07B00021080318210A2F077B
:102CF800B10048083007840049080318490A310719
:102D0800FF000A128A1100210A168A11B200053042
:102D1800A00029080A168A118F200A168A11903EE7
:102D2800831203134807B30033088400320883175B
:102D380080000130C8070318C90A0030C907112EDE
:102D4800063026062704031DAA2EAB2EFF2F2B03C1
:102D5800031DAF2EB02E072FC001C1014108803AD4
:102D6800FF0080307F02031DBB2E05304002031C8C
:102D7800BE2EBF2EC02EFF2F831203132808AC00CF
:102D8800AD012C08A0002D08A1000530A2000030DC
:102D9800A3000A168A1116210A168A111230831204
:102DA8000313AE008130AF0020082E07B0002108C1
:102DB8000318210A2F07B100400830078400410892
:102DC8000318410A3107FF000A128A1100210A1666
:102DD8008A11B2000530A00029080A168A118F202E
:102DE8000A168A11B83E831203134007B30033084A
:102DF80084003208831780000130C0070318C10A15
:102E08000030C107B22E02302B06031D0C2F0D2FE8
:102E1800642FC201C3014308803AFF0080307F025B
:102E2800031D182F05304202031C1B2F1C2F1D2FBA
:102E3800FF2F831203132808AC00AD012C08A00053
:102E48002D08A1000530A2000030A3000A168A113F
:102E580016210A168A11123083120313AE0081302C
:102E6800AF0020082E07B00021080318210A2F07F9
:102E7800B10042083007840043080318430A3107A9
:102E8800FF000A128A1100210A168A11B2000530C1
:102E9800A00029080A168A118F200A168A11903E66
:102EA800831203134207B3003308840032088317E0
:102EB80080000130C2070318C30A0030C3070F2F70
:102EC80003302B06031D692F6A2FFB2ACA01CB0189
:102ED8004B08803AFF0080307F02031D752F0530B4
:102EE8004A02031C782F792F7A2FFF2F831203139E
:102EF8002808AC00AD012C08A0002D08A100053061
:102F0800A2000030A3000A168A1116210A168A1197
:102F1800123083120313AE008130AF0020082E0751
:102F2800B00021080318210A2F07B1004A0830070A
:102F380084004B0803184B0A3107FF000A128A1154
:102F480000210A168A11B2000530A00029080A16C5
:102F58008A118F200A168A11B83E831203134A0772
:102F6800B300330884003208831780002808AC00B7
:102F7800AD012C08A0002D08A1000530A2000030EA
:102F8800A3000A168A1116210A168A111230831212
:102F98000313AE008130AF0020082E07B0002108CF
:102FA8000318210A2F07B1004A08300784004B088C
:102FB80003184B0A3107FF000A128A1100210A166A
:102FC8008A11B2000530A00029080A168A118F203C
:102FD8000A168A11903E831203134A07B300330876
:102FE80084003208831780000130CA070318CB0A0F
:082FF8000030CB076C2F08002C
:04400E00D523FF3E79
:00000001FF
