:060000000A128A1110280B
:10000800FE00030EF7000408F8000A08F9007F084C
:10001800FA000A128A11EA2D0A128A111328831388
:10002800D030FD000730FE00F730FF00C8308400F4
:100038000A128A1506270A128A116830FD000E3046
:10004800FE00E630FF005B3084000A128A1506279E
:100058000A128A110A128A15BE260A128A11FB0090
:100068000A128A15BF260A128A11FC0083179030DB
:100078008400B8300A128A15C6260A128A11831318
:10008800A0308400C8300A128A15C6260A128A11BE
:10009800E801E901FD0183010A128A11132F831275
:1000A8000313A8002803031D5A285B288A2807126F
:1000B800A901AA01831203132908A03E840083130F
:1000C80000080A128A15C0260A128A110130831202
:1000D8000313A9070318AA0A0030AA072A08803AB6
:1000E800FF0080307F02031D7B2828302902031C73
:1000F8007E287F285E28073083120313A700A70BEA
:1001080083280000831203130716BE28023028062E
:10011800031D8F289028BE280812AB01AC0183125A
:1001280003132B08903E8400831700080A128A15CF
:10013800C0260A128A11013083120313AB07031871
:10014800AC0A0030AC072C08803AFF0080307F02F0
:10015800031DB02828302B02031CB328B428932889
:10016800073083120313A700A70BB82800008312D7
:1001780003130816080083120313C000C101C2014B
:10018800831203134208AD004108AC004008AE00DA
:1001980041083E07BF003F088400831300080A1285
:1001A8008A11E6230A128A11013083120313C10748
:1001B8000318C20A0030C2074208803AFF008030A4
:1001C8007F02031DE92808304102031CEC28ED28B2
:1001D800C4280800831203136508303EBE000630A9
:1001E800AC000030AD000230AE003E080A128A11A1
:1001F800E6230A128A110800FF1B0A2983137F18B5
:1002080083170008840A0319FF0A08007F087F394A
:100218008A000408840A0319FF0A820008341C347F
:100228003E347F340034303435344834403430344C
:1002380045342934113421347D347D34093405346E
:10024800053479347D340934113421347D3438341B
:1002580044344434383444347E34013429342E341C
:10026800103430344A344D344934303460345034E6
:100278004834503460341E34043404343834403440
:100288003E344934493449343E34623414340834F1
:100298001034603440343C34203420341C34083466
:1002A8007C3404347C3402343834443444343C34AC
:1002B80004344134633455344934413410340834F7
:1002C800783408340434183424347E34243418340C
:1002D8005E346134013461345E3478341434153456
:1002E800143478343834443445343C344034783425
:1002F80015341434153478343834453444343D34A2
:1003080040343C344334423443343C343834453448
:100318004434453438343C344134403441343C343A
:1003280038344234403442343834083408342A34B7
:100338001C34083420347E3402340234023412343B
:10034800193415341234003448347E344934413475
:100358004234013412347C34123401340034003411
:10036800003400340034003400345F340034003486
:100378000034033400340334003414347F34143428
:100388007F34143424342A347F342A341234233406
:1003980013340834643462343634493456342034DF
:1003A800503400340B340734003400340034003443
:1003B8003E3441340034003441343E340034003497
:1003C80008342A341C342A340834083408343E34B7
:1003D80008340834003458343834003400340834CD
:1003E80008340834083408340034303430340034E5
:1003F8000034203410340834043402343E34513488
:10040800493445343E34003442347F344034003477
:1004180062345134493449344634223441344934FD
:10042800493436341834143412347F3410342734B1
:1004380045344534453439343C344A3449344934F4
:1004480030340134713409340534033436344934D2
:1004580049344934373406344934493429341E344C
:100468000034363436340034003400345B343B34E2
:100478000034003400340834143422344134143441
:1004880014341434143414344134223414340834F5
:100498000034023401345134093406343E344134D2
:1004A8005D3455341E347E340934093409347E34BD
:1004B8007E3449344934493436343E344134413445
:1004C800413422347F344134413441343E347F3422
:1004D80049344934493441347F34093409340934BE
:1004E80001343E3441344134513432347F34083499
:1004F800083408347F34003441347F3441340034C4
:1005080020344034403440343F347F340834143489
:10051800223441347F3440344034403440347F34D2
:1005280002340C3402347F347F34043408341034F9
:100538007F343E344134413441343E347F340934CD
:100548000934093406343E344134513421345E349C
:100558007F3409341934293446342634493449342B
:1005680049343234013401347F34013401343F34A6
:100578004034403440343F3407341834603418343D
:1005880007347F342034183420347F3463341434EF
:1005980008341434633403340434783404340334AE
:1005A80061345134493445344334003400347F34A1
:1005B8004134413402340434083410342034413492
:1005C80041347F3400340034043402347F3402343C
:1005D8000434403440344034403440340034073428
:1005E8000B34003400343834443444343C3440341C
:1005F8007F3448344434443438343834443444340C
:100608004434443438344434443448347F343834FB
:10061800543454345434083408347E34093402349D
:10062800003408341434543454343C347F3408349B
:10063800043404347834003444347D344034003491
:100648002034403444343D34003400347F34103492
:1006580028344434003441347F344034003478340E
:1006680004341834043478347C34083404340434BE
:100678007834383444344434443438347C3414348E
:100688002434243418341834243414347C34403456
:1006980000347C3408340434043448345434543436
:1006A8005434203404343E344434203400343C344C
:1006B8004034403420347C341C34203440342034DA
:1006C8001C343C344034303440343C3444342834D2
:1006D800103428344434043448343034083404346E
:1006E8004434643454344C34443400340834363498
:1006F800413400340034003477340034003400349A
:10070800413436340834003408340434083410349E
:1007180008342A3455342A3455342A340034003401
:1007280019340034323400344B3400346434003427
:100738007D34003496340034AF340034C834003487
:10074800E1340034FA340034133401342C340134E5
:10075800453401345E340134773401349034013443
:10076800A9340134C2340134DB340134F4340134A3
:100778000D340234263402343F34023458340234FF
:10078800713402348A340234A3340234BC3402345F
:10079800D5340234EE3402340734033420340334BD
:1007A80039340334523403346B340334843403341B
:1007B8009D340334B6340334CF340334E83403347B
:1007C8000134043483120313B7002E03031DED2BE9
:1007D800EE2B442CB801B901831203133708AF007C
:1007E800B0012F08A6003008A7000530A800003087
:1007F800A9000A128A1557270A128A111230831281
:100808000313B1008130B20026083107B30027086E
:100818000318270A3207B400380833078400390858
:100828000318390A3407FF000A128A1100210A1234
:100838008A11B5000530A6002C080A128A15292746
:100848000A128A11A03E831203133807B60036082D
:1008580084003508831380000130B8070318B90AEB
:100868000030B9073908803AFF0080307F02031D45
:100878003F2C05303802031C422C432CF02B392D19
:1008880002302E06031D492C4A2CA02CBA01BB01AC
:10089800831203133708AF00B0012F08A6003008F1
:1008A800A7000530A8000030A9000A128A155727AA
:1008B8000A128A11123083120313B1008130B20078
:1008C80026083107B30027080318270A3207B4009F
:1008D8003A08330784003B0803183B0A3407FF0033
:1008E8000A128A1100210A128A11B5000530A600E1
:1008F8002C080A128A1529270A128A11903E831297
:1009080003133A07B60036088400350883178000B9
:100918000130BA070318BB0A0030BB073B08803A0E
:10092800FF0080307F02031D9B2C05303A02031C18
:100938009E2C9F2C4C2C392D03302E06031DA52CE4
:10094800A62C392DBC01BD01831203133708AF0053
:10095800B0012F08A6003008A7000530A800003015
:10096800A9000A128A1557270A128A11123083120F
:100978000313B1008130B20026083107B3002708FD
:100988000318270A3207B4003C08330784003D08DF
:1009980003183D0A3407FF000A128A1100210A12BF
:1009A8008A11B5000530A6002C080A128A152927D5
:1009B8000A128A11A03E831203133C07B6003608B8
:1009C80084003508831380003708AF00B0012F0872
:1009D800A6003008A7000530A8000030A9000A12B8
:1009E8008A1557270A128A11123083120313B1008D
:1009F8008130B20026083107B30027080318270AF8
:100A08003207B4003C08330784003D0803183D0A48
:100A18003407FF000A128A1100210A128A11B50050
:100A28000530A6002C080A128A1529270A128A11ED
:100A3800903E831203133C07B6003608840035083D
:100A4800831780000130BC070318BD0A0030BD07BA
:100A58003D08803AFF0080307F02031D352D0530A8
:100A68003C02031C382D392DA82C080083120313CF
:100A78006908803AFF0080307F02031D452D0A3047
:100A880068020318482D492D522D83120313680854
:100A9800303EC2004208BE00BF01A12D83120313DD
:100AA8006908803AFF0080307F02031D5D2D1430F5
:100AB80068020318602D612D6B2D313083120313EA
:100AC800BE006808263EC2004208BF00A12D83125E
:100AD80003136908803AFF0080307F02031D762DDA
:100AE8001E3068020318792D7A2D822D3230831238
:100AF8000313BE0068081C3EC200682D831203134E
:100B08006908803AFF0080307F02031D8D2D283050
:100B180068020318902D912D992D333083120313F9
:100B2800BE006808123EC200682D343083120313D9
:100B3800BE006808083EC200682DC001C1018312CA
:100B4800031340083E3E840083130008031DAD2DA7
:100B5800AE2DC12D40034104031DB32DB42DE92D45
:100B68000530AC000030AD00AE01AE0A20300A12EC
:100B78008A11E6230A128A11E92D4008043EAC00C6
:100B880041080318013E003EAD00AE01AE0A400820
:100B98003E3E840000080A128A11E6230A128A11CE
:100BA800013083120313C0070318C10A0030C107BC
:100BB8004108803AFF0080307F02031DE52D023096
:100BC8004002031CE82DE92DA32D0800831203130E
:100BD8000C1FEF2DF02D712E1E08A5008316031390
:100BE8001E0883120313A4006808F4007407943ED7
:100BF800840083300318013EFF000A128A11002185
:100C08000A128A11F5000A128A1100210A128A11A1
:100C1800F6007508053EA00076080318013E003E60
:100C2800A1006808F4007407923E8400833003181A
:100C3800013EFF000A128A1100210A128A11F500EA
:100C48000A128A1100210A128A11F6007508FB3E61
:100C5800A20076080318013EFF3EA3002508803A4B
:100C6800F4002108803A7402031D3C2E2008240257
:100C7800031C3F2E402E502E283083120313680683
:100C880069040319482E492E502E0130E80703182D
:100C9800E90A0030E9076E2E831203132308803A0D
:100CA800F4002508803A7402031D5C2E24082202F1
:100CB800031C5F2E602E6E2E8312031368086904CE
:100CC8000319672E682E6E2EFF30E8070318E90A0D
:100CD800FF30E907831203130C130B1C742E752EB7
:100CE8007A2E0A128A1185270A128A117A08FF00B9
:100CF80079088A0078088400770E8300FE0E7E0E3D
:100D0800090083120313AA007030AC008030AB00D6
:100D180010302A02031C912E922E942E0F30AA0016
:100D28002A082C07AC00071507160713871708159C
:100D380008160813881707110811073083120313C0
:100D4800A700A70BA52E000083120313071508158B
:100D58008713881307120812A801A90100300A1284
:100D68008A15C0260A128A11013083120313A807B4
:100D78000318A90A0030A9072908803AFF00803023
:100D88007F02031DC92E28302802031CCC2ECD2E2D
:100D9800B22E073083120313A700A70BD12E000031
:100DA80083120313071608168717881707120812E5
:100DB8002C080A128A15C0260A128A1183120313F4
:100DC8002C080A128A15C0260A128A1107308312C3
:100DD8000313A700A70BEE2E0000831203130716B8
:100DE8000816071208122B080A128A15C0260A12BA
:100DF8008A11831203132B080A128A15C0260A12B5
:100E08008A11073083120313A700A70B092F0000CC
:100E180083120313071608168713881308000A128B
:100E28008A157E270A128A110F300A128A1185261E
:100E38000A128A114B3084005B3083120313C700F7
:100E48000408C8000830C900470884008313000854
:100E5800CA00C70A480884004A088000C80AC90BA3
:100E6800282F4B30BE0002300A128A11BF200A1206
:100E78008A1153308400C83083120313C700040852
:100E8800C8000830C9004708840083130008CA0056
:100E9800C70A480884004A088000C80AC90B472FB7
:100EA8005330BE0001300A128A11BF200A128A117B
:100EB8008312031363036404031D632F642F732FCA
:100EC80002300A128A1153200A128A110A128A1150
:100ED800EE200A128A1183120313E301E4010130A0
:100EE8000A128A1153200A128A110A128A113A2503
:100EF8000A128A11831203139F145C2F0A128A1193
:100F080010282930F000F00B872F000083120313FC
:100F1800060EF000700C0139F100060E0139F200DE
:100F280072077104F3007D08031D9B2F9C2FF12F7E
:100F38007303031DA02FA12FC72FFF30FB07031832
:100F4800FC0AFF30FC077B087C04031DAC2FAD2F87
:100F5800F12F0330FB000030FC0065036604031921
:100F6800B62FB72FBE2FFF30E5070318E60AFF306C
:100F7800E607C22F0430E5000030E6000130E30048
:100F88000030E400F12F02307306031DCC2FCD2F63
:100F9800F12F0130FB070318FC0A0030FC0706306C
:100FA8007B067C04031DD92FDA2FF12F0330FB00B9
:100FB8000030FC000430650666040319E42FE52FB1
:100FC800EC2F0130E5070318E60A0030E607C22FC8
:100FD8000130E5000030E600C22F7308FD00060866
:100FE80086000B10080056344F344C343A343034F1
:060FF800203420342034F7
:101D7C000334003483120313A600260893000800D2
:101D8C0064008001840A0406031900340406C72E7B
:101D9C008316031309158316031788178316031369
:101DAC00061686160800831603130F100F088F39BA
:101DBC0040388F008F150F1DE42EE52EE12E080004
:101DCC0049344E345034553454343A34303420344D
:101DDC00013400340134003430340B108B1583166D
:101DEC0003130C17831203130C1383160313161609
:101DFC0096160B178B1708007E088A007F08820046
:101E0C000A128A1502270A128A158000840A04080D
:101E1C007D0603190034FF0A0319FE0A062F8316E8
:101E2C000317880189018316031385018601870135
:101E3C008801890183120313850186010330870011
:101E4C0088018901080083120313A800A701281C2C
:101E5C00302F312F352F2608FF007F08A7070310DE
:101E6C00A60D0310A80C2808031D3D2F3E2F2D2F67
:101E7C0027080800831203131F083F3980389F007E
:101E8C00831603131F129F12831203131F08C339E7
:101E9C001C389F00831603139F17831203131F1400
:101EAC00080083120313AA01AB01261C5E2F5F2FBF
:101EBC00652F2808AA070318AB0A2908AB070130BD
:101ECC000310A80DA90DFF3E031D662F0130031052
:101EDC00A70CA60CFF3E031D6D2F26082704031D1F
:101EEC00782F792F5B2F2B08A7002A08A600080053
:101EFC000A128A15D9260A128A150A128A1515276A
:101F0C000A128A150A128A15CE260A128A150A1284
:101F1C008A1540270A128A1583120313A601A60AF2
:101F2C00A701A801A80A00300A128A15A5270A12CF
:101F3C008A150A128A15F3260A128A1508008312CA
:101F4C000313A90014082906F039290694008316F6
:101F5C000313871207120430831203132902031C84
:101F6C00B82FB92FCA2F8316031394138715831216
:101F7C0003138719C22FC62F831203131416C92FEC
:101F8C00831203131412D92F260C83160313031C6C
:101F9C00941303189417871183120313270C031C33
:101FAC00141203181416280C83160313031C141391
:101FBC00031814178312031327030319E62FE72FB3
:101FCC00EB2F871DEA2FEB2FFD2F83160313140E17
:101FDC00FF00FF0C7F0C0139FF000130FF06FF0EE4
:101FEC00FF0DFF0D14087F06BF397F069400831286
:041FFC00941608002F
:04400E00D523FF3E79
:00000001FF
