:060000000A128A1110280B
:10000800FE00030EF7000408F8000A08F9007F084C
:10001800FA000A128A1153280A128A111328831324
:10002800D030FD001430FE007530FF00C830840069
:100038000A168A11B5240A128A116830FD00143094
:10004800FE009530FF005B3084000A168A11B52443
:100058000A128A110A168A1165240A128A11FB00EB
:100068000A168A1166240A128A11FC008317903036
:100078008400B8300A168A116D240A128A11831373
:10008800A0308400C8300A168A116D240A128A1119
:10009800E801E901FD0183010A168A11502E831235
:1000A80003130C1F58285928DA281E08A5008316A0
:1000B80003131E0883120313A4006808F4007407CE
:1000C800BC3E84008D300318013EFF000A128A11DD
:1000D80000210A128A11F5000A128A1100210A1257
:1000E8008A11F6007508053EA00076080318013E3F
:1000F800003EA1006808F4007407BA3E84008D3001
:100108000318013EFF000A128A1100210A128A11FF
:10011800F5000A128A1100210A128A11F6007508E0
:10012800FB3EA20076080318013EFF3EA300250807
:10013800803AF4002108803A7402031DA52820089B
:100148002402031CA828A928B928283083120313DD
:10015800680669040319B128B228B9280130E807EC
:100168000318E90A0030E907D72883120313230884
:10017800803AF4002508803A7402031DC528240833
:100188002202031CC828C928D72883120313680829
:1001980069040319D028D128D728FF30E8070318A5
:1001A800E90AFF30E907831203130C130B1CDD283F
:1001B800DE28E3280A168A11DE250A128A117A082F
:1001C800FF0079088A0078088400770E8300FE0E05
:1001D8007E0E0900831203136508303EBE00063008
:1001E800AC000030AD000230AE003E080A128A159D
:1001F800AC260A128A110800FF1B0A2983137F18EC
:1002080083170008840A0319FF0A08007F087F394A
:100218008A000408840A0319FF0A8200083400349B
:100228001C3400343E3400347F340034003400344D
:100238003034003435340034483400344034003429
:100248003034003445340034293400341134003457
:10025800213400347D3400347D34003409340034D2
:100268000534003405340034793400347D340034E6
:100278000934003411340034213400347D3400341E
:1002880038340034443400344434003438340034CE
:10029800443400347E3400340134003429340034CA
:1002A8002E34003410340034303400344A340034EE
:1002B8004D34003449340034303400346034003470
:1002C800503400344834003450340034603400343E
:1002D8001E34003404340034043400343834003418
:1002E800403400343E340034493400344934003456
:1002F800493400343E340034623400341434003459
:10030800083400341034003460340034403400348D
:100318003C34003420340034203400341C3400349D
:10032800083400347C340034043400347C34003421
:100338000234003438340034443400344434003453
:100348003C34003404340034413400346334003421
:100358005534003449340034413400341034003406
:100368000834003478340034083400340434003459
:1003780018340034243400347E34003424340034F7
:10038800183400345E3400346134003401340034ED
:10039800613400345E34003478340034143400346A
:1003A80015340034143400347834003438340034CC
:1003B80044340034453400343C3400344034003490
:1003C80078340034153400341434003415340034CF
:1003D800783400343834003445340034443400343C
:1003E8003D340034403400343C3400344334003469
:1003F80042340034433400343C340034383400345C
:10040800453400344434003445340034383400343E
:100418003C34003441340034403400344134003436
:100428003C3400343834003442340034403400342E
:10043800423400343834003408340034083400348A
:100448002A3400341C340034083400342034003496
:100458007E34003402340034023400340234003470
:100468001234003419340034153400341234003492
:1004780000340034483400347E34003449340034C5
:10048800413400344234003401340034123400342E
:100498007C34003412340034013400340034003425
:1004A80000340034003400340034003400340034A4
:1004B800083400342434003412340034083400344E
:1004C8000034003400340034043400340834003478
:1004D8000434003400340034143400343434003428
:1004E80036340034163400341434003407340034FD
:1004F8000234003467340034123400340E340034CB
:1005080006340034363400340834003436340034C9
:100518003034003414340034223400342A340034A3
:100528002A3400343E340034003400341C3400349F
:10053800043400340034003400340034003400340F
:10054800083400343E3400340034003400340034BD
:1005580000340034003400343E34003408340034AD
:10056800003400341C340034083400343E34003481
:10057800083400341C3400343E3400342A34003447
:10058800223400343E340034003400340034003463
:10059800003400340E3400340034003400340034A5
:1005A8000034003404340034043400340434003497
:1005B800003400340034003418340034003400347B
:1005C800183400340034003400340034303400343B
:1005D8000834003406340034003400343E34003427
:1005E800223400342A340034223400343E340034B7
:1005F80022340034223400343E34003420340034B1
:10060800203400342A3400342A3400342A340034A4
:100618002A3400342E3400342A3400342A34003486
:100628002A340034223400343E3400340E3400348A
:100638000834003408340034083400343E340034BC
:100648002E3400342A3400342A3400342A34003456
:100658002A3400343A3400342A3400342A3400343A
:100668002A3400343A34003402340034023400347A
:1006780002340034023400343E3400343E34003452
:100688002A3400342A3400342A3400343E34003406
:100698002E3400342A3400342A3400342A34003406
:1006A8002E3400340034003424340034243400342C
:1006B800383400340034003400340034003400345A
:1006C8007F340034003400340034003408340034FB
:1006D800083400341C34003400340034003400344E
:1006E8003C340034243400340034003424340034DE
:1006F8003C340034003400341C34003408340034F2
:100708000834003400340034063400340234003431
:10071800223400341C340034003400343E340034B5
:10072800083400342A340034223400343E3400348F
:10073800363400341434003414340034143400349F
:100748002234003414340034223400342A3400347F
:1007580022340034143400340E34003400340034AD
:100768001C34003400340034383400342A34003463
:100778001A3400340A3400340634003402340034A5
:100788001E340034203400341E3400340234003463
:100798003E34003438340034283400343E340034D5
:1007A80028340034243400343E34003420340034F7
:1007B80026340034123400340E3400342234003429
:1007C8002A3400342A3400342A34003422340034E1
:1007D8000034003408340034043400343E34003427
:1007E80000340034283400342834003428340034E9
:1007F800243400343E3400342234003422340034AB
:1008080022340034223400343E34003400340034BE
:1008180008340034103400343E34003400340034DA
:100828003834003424340034223400342234003480
:10083800003400341C3400342234003418340034BA
:100848000634003438340034383400342634003464
:100858002234003426340034383400341C34003454
:100868002234003426340034203400343E3400343A
:100878003E3400342234003422340034023400344C
:100888000E34003422340034123400340A34003474
:100898000634003402340034123400342434003472
:1008A80008340034103400343E3400340834003442
:1008B800123400343E340034103400340834003428
:1008C8003E340034203400342834003424340034D6
:1008D8003E340034023400340434003438340034F4
:1008E80004340034023400343E34003422340034FA
:1008F80022340034223400343E340034303400349E
:100908002C340034223400342C3400343034003495
:100918000E340034123400342634003410340034D9
:100928000E34003430340034243400342434003499
:10093800243400343E340034003400341434003499
:100948007734003400340034003400340034003488
:1009580006340034083400343034003400340034B1
:100968000034003400340034773400341434003454
:100978000034003400340034083400340C340034BB
:100988000834003400340034003400342034003497
:10099800203400342034003400340034003400346F
:1009A8000C3400341434003400340034003400347F
:1009B800003400343434003410340034103400343B
:1009C8002434003418340034243400342C340034F3
:1009D80024340034183400341C3400340034003417
:1009E80018340034003400343834003414340034FB
:1009F80014340034343400340C34003404340034F7
:100A08001C340034203400341C34003404340034E2
:100A18003C34003438340034283400343C34003456
:100A280028340034283400343C3400342034003472
:100A38002C340034143400340C340034243400349E
:100A48002C3400342C3400342C3400342434003456
:100A58000034003408340034043400343C340034A6
:100A68000034003428340034283400342834003466
:100A7800243400343C34003400340034243400344A
:100A880024340034243400343C340034003400343A
:100A980010340034203400343C3400340034003442
:100AA80030340034283400342434003424340034FE
:100AB8000034003418340034243400341034003442
:100AC8000C34003430340034303400342C340034E6
:100AD800243400342C3400343034003418340034D6
:100AE800243400342C340034203400343C340034B2
:100AF8003C340034243400342434003404340034C6
:100B08000C340034043400342434003414340034F5
:100B18000C340034043400342434003408340034F1
:100B2800103400343C3400340034003410340034C1
:100B3800203400343C340034203400341034003481
:100B48003C34003420340034283400342434003455
:100B58003C34003404340034083400343034003475
:100B680008340034043400343C3400342434003471
:100B780024340034243400343C3400343034003419
:100B88002834003424340034283400343034003419
:100B98000C3400341434003420340034103400345D
:100BA8000C34003420340034283400342834003421
:100BB800283400343C340034003400341434003415
:100BC8007F340034003400340034003430340034CE
:100BD8000834003407340034083400343034003426
:100BE80000340034003400347F34003414340034CA
:100BF800003400340834003408340034003400343D
:100C080008340034083400342A34003455340034AD
:100C18002A340034553400342A34003408341C345F
:100C28003E347F3400343034353448344034303442
:100C380045342934113421347D347D340934053464
:100C4800053479347D340934113421347D34383411
:100C580044344434383444347E34013429342E3412
:100C6800103430344A344D344934303460345034DC
:100C78004834503460341E34043404343834403436
:100C88003E344934493449343E34623414340834E7
:100C98001034603440343C34203420341C3408345C
:100CA8007C3404347C3402343834443444343C34A2
:100CB80004344134633455344934413410340834ED
:100CC800783408340434183424347E342434183402
:100CD8005E346134013461345E347834143415344C
:100CE800143478343834443445343C34403478341B
:100CF80015341434153478343834453444343D3498
:100D080040343C344334423443343C34383445343E
:100D18004434453438343C344134403441343C3430
:100D280038344234403442343834083408342A34AD
:100D38001C34083420347E34023402340234123431
:100D4800193415341234003448347E34493441346B
:100D58004234013412347C34123401340034003407
:100D680000340034003400345F340034003400347C
:100D78000034033400340334003414347F3414341E
:100D88007F34143424342A347F342A3412342334FC
:100D980013340834643462343634493456342034D5
:100DA8005034003400340C3400340034003400343F
:100DB8003E3441340034003441343E34003400348D
:100DC80008342A341C342A340834083408343E34AD
:100DD80008340834003400345834383400340034CB
:100DE80000341034103400340034003430343034DB
:100DF800003420341034083404340234003400340D
:100E0800303430340034003400343E34003400349C
:100E180000347E340834083406347E3408340E3402
:100E280008340634003434344A344A340034003444
:100E38001C34223422341C340234023402347E340A
:100E480000340E343834603438340E3470341C3482
:100E580006341C3470340634093409347E340034C2
:100E68000034003424340034003400340034643452
:100E7800003400340034103428344434003400344E
:100E88001434143414340034003444342834103402
:100E98000034023401345134093406343E344134C8
:100EA8005D3455341E34003420343034103400346A
:100EB800003440346F3420340034003401347D343D
:100EC8000134003408341034503410340C340834ED
:100ED80010341234123408340834123413341234EF
:100EE8000C340034313449345E34483400343234FC
:100EF8004B344E3448340034313449344E34483459
:100F08000034203424342434383400342034253454
:100F18002434383400344034403438340034003415
:100F2800403440343A3400343834203438341034BF
:100F38001834383420343A3411341A3438342034DC
:100F48003C3414341C34383420343C3415341C34C8
:100F580020343E3428342834303420343E34283485
:100F68002A343034003438344C344A344A34003467
:100F780038344C344B344A34603440344834553473
:100F88007834603440344934553479343034483412
:100F98004C3440347E343034403440347E34003471
:100FA800703408340C340A34043430344034443453
:100FB8004034383400341C34243424341834003495
:100FC8001C34253425341834203444344A343C3411
:100FD800003408341434503454340A340834143483
:100FE800103414340A34003400347F34413441342A
:100FF80002340434083410342034413441347F340A
:1010080000340034043402347F340234043440346D
:101018004034403440344034003407340B34003416
:1010280000340034003400343F3420341034103499
:101038004C3410341034103411340D34103410344E
:10104800103412341B341234103410341434523423
:1010580012340C3410341434133412340C34103465
:101068001434123412340C3400342034243424342C
:1010780038340034203425342434383400344034AF
:101088004034383410340034403440343A34103466
:1010980038342034383420341834383422343B344B
:1010A8002234183438342834243424341834383466
:1010B800283424342534183420343E342834283451
:1010C800303420343E3428342A3430342034283420
:1010D8003C343C342034203428343C343D342034EF
:1010E80020342034283435341C3420342034293436
:1010F80035341D3420342C342A341134213420342E
:1011080020343E34203420342034303428342834F9
:101118001034203420341A3420342034203420343D
:10112800343424341834103450344C34503410349B
:101138000034083436344134003400340034773411
:101148000034003400344134363408340034083470
:1011580004340834103408342A3455342A345534C5
:101168002A3408341C343E347F3400343034353467
:1011780048344034303445342934113421347D34F2
:101188007D3409340534053479347D340934113417
:1011980021347D34383444344434383444347E344F
:1011A800013429342E34103430344A344D3449341F
:1011B8003034603450344834503460341E3404348D
:1011C8000434383440343E344934493449343E34A4
:1011D8006234143408341034603440343C342034DD
:1011E80020341C3408347C3404347C3402343834DD
:1011F800443444343C34043441346334553449343D
:10120800413410340834783408340434183424341D
:101218007E34243418345E346134013461345E34ED
:101228007834143415341434783438344434453428
:101238003C34403478341534143415347834383424
:10124800453444343D3440343C34433442344334EC
:101258003C34383445344434453438343C344134EF
:10126800403441343C3438344234403442343834E5
:10127800083408342A341C34083420347E340234C8
:101288000234023412341934153412340034483418
:101298007E34493441344234013412347C341234BB
:1012A8000134003400340034003400340034003495
:1012B8005F34003400340034033400340334003421
:1012C80014347F3414347F34143424342A347F346F
:1012D8002A341234233413340834643462343634F0
:1012E800493456342034503400340B340734003435
:1012F8000034003400343E34413400340034413486
:101308003E340034003408342A341C342A34083477
:10131800083408343E340834083400345834383437
:1013280000340034083408340834083408340034ED
:101338003034303400340034203410340834043469
:1013480002343E345134493445343E340034423456
:101358007F3440340034623451344934493446349B
:10136800223441344934493436341834143412346C
:101378007F341034273445344534453439343C34CB
:101388004A34493449343034013471340934053429
:10139800033436344934493449343734063449340B
:1013A800493429341E340034363436340034003499
:1013B80000345B343B3400340034003408341434D3
:1013C800223441341434143414341434143441346D
:1013D80022341434083400340234013451340934CA
:1013E80006343E3441345D3455341E3432341434BA
:1013F8000834143426342234223422343C34203441
:101408000034223412343C340034023402340234BE
:101418003E3402343A340234023402343C34003468
:10142800023402343C340034003402343E34023492
:10143800003402343E34023402343C341E34603406
:10144800423442343C340034003402340E34003424
:1014580000342234223422343C340034023402343E
:101468007E34003400340734443424341C340234C9
:101478003C34023422343C3402343E3422342234A4
:101488003C340034223422343C34003400340234F6
:1014980002347C34003402340E34323422341C34A6
:1014A80022342434283428341E342C342A34223468
:1014B80022343C3400340C340A3402347C34223470
:1014C8002434283438342634023404340834783444
:1014D80006347A34023422341C34003402340234A0
:1014E80002343C3400343E3428342E3420341E3444
:1014F80022343E34023402343C34003400347F3425
:101508004134413402340434083410342034413432
:1015180041347F3400340034043402347F340234DC
:1015280004344034403440344034403400340734C8
:101538000B34003400343834443444343C344034BC
:101548007F344834443444343834383444344434AC
:101558004434443438344434443448347F3438349C
:10156800543454345434083408347E34093402343E
:10157800003408341434543454343C347F3408343C
:10158800043404347834003444347D344034003432
:101598002034403444343D34003400347F34103433
:1015A80028344434003441347F34403400347834AF
:1015B80004341834043478347C340834043404345F
:1015C8007834383444344434443438347C3414342F
:1015D8002434243418341834243414347C344034F7
:1015E80000347C34083404340434483454345434D7
:1015F8005434203404343E344434203400343C34ED
:101608004034403420347C341C342034403420347A
:101618001C343C344034303440343C344434283472
:10162800103428344434043448343034083404340E
:101638004434643454344C34443400340834363438
:10164800413400340034003477340034003400343A
:10165800413436340834003408340434083410343F
:1016680008342A3455342A3455342A3408341C347E
:101678003E347F34003430343534483440343034E8
:1016880045342934113421347D347D34093405340A
:10169800053479347D340934113421347D343834B7
:1016A80044344434383444347E34013429342E34B8
:1016B800103430344A344D34493430346034503482
:1016C8004834503460341E340434043438344034DC
:1016D8003E344934493449343E346234143408348D
:1016E8001034603440343C34203420341C34083402
:1016F8007C3404347C3402343834443444343C3448
:101708000434413463345534493441341034083492
:10171800783408340434183424347E3424341834A7
:101728005E346134013461345E34783414341534F1
:10173800143478343834443445343C3440347834C0
:1017480015341434153478343834453444343D343D
:1017580040343C344334423443343C3438344534E4
:101768004434453438343C344134403441343C34D6
:1017780038344234403442343834083408342A3453
:101788001C34083420347E340234023402341234D7
:10179800193415341234003448347E344934413411
:1017A8004234013412347C341234013400340034AD
:1017B800003400340034003400345F340034003422
:1017C8000034033400340334003414347F341434C4
:1017D8007F34143424342A347F342A3412342334A2
:1017E800133408346434623436344934563420347B
:1017F800503400340B3407340034003400340034DF
:101808003E3441340034003441343E340034003432
:1018180008342A341C342A340834083408343E3452
:101828000834083400345834383400340034083468
:101838000834083408340834003430343034003480
:101848000034203410340834043402343E34513423
:10185800493445343E34003442347F344034003413
:101868006234513449344934463422344134493499
:10187800493436341834143412347F34103427344D
:1018880045344534453439343C344A344934493490
:10189800303401347134093405340334363449346E
:1018A80049344934373406344934493429341E34E8
:1018B8000034363436340034003400345B343B347E
:1018C80000340034003408341434223441341434DD
:1018D8001434143414341434413422341434083491
:1018E8000034023401345134093406343E3441346E
:1018F8005D3455341E347E340934093409347E3459
:101908007E3449344934493436343E3441344134E0
:10191800413422347F344134413441343E347F34BD
:1019280049344934493441347F3409340934093459
:1019380001343E3441344134513432347F34083434
:10194800083408347F34003441347F34413400345F
:1019580020344034403440343F347F340834143425
:10196800223441347F3440344034403440347F346E
:1019780002340C3402347F347F3404340834103495
:101988007F343E344134413441343E347F34093469
:101998000934093406343E344134513421345E3438
:1019A8007F340934193429344634263449344934C7
:1019B80049343234013401347F34013401343F3442
:1019C8004034403440343F340734183460341834D9
:1019D80007347F342034183420347F34633414348B
:1019E800083414346334033404347834043403344A
:1019F80061345134493445344334003400347F343D
:101A0800413441340234043408341034203441342D
:101A180041347F3400340034043402347F340234D7
:101A280004344034403440344034403400340734C3
:101A38000B34003400343834443444343C344034B7
:101A48007F344834443444343834383444344434A7
:101A58004434443438344434443448347F34383497
:101A6800543454345434083408347E340934023439
:101A7800003408341434543454343C347F34083437
:101A8800043404347834003444347D34403400342D
:101A98002034403444343D34003400347F3410342E
:101AA80028344434003441347F34403400347834AA
:101AB80004341834043478347C340834043404345A
:101AC8007834383444344434443438347C3414342A
:101AD8002434243418341834243414347C344034F2
:101AE80000347C34083404340434483454345434D2
:101AF8005434203404343E344434203400343C34E8
:101B08004034403420347C341C3420344034203475
:101B18001C343C344034303440343C34443428346D
:101B28001034283444340434483430340834043409
:101B38004434643454344C34443400340834363433
:101B48004134003400340034773400340034003435
:101B5800413436340834003408340434083410343A
:101B680008342A3455342A3455342A34003400349D
:101B780019340034323400344B34003464340034C3
:101B88007D34003496340034AF340034C834003423
:101B9800E1340034FA340034133401342C34013481
:101BA800453401345E3401347734013490340134DF
:101BB800A9340134C2340134DB340134F43401343F
:101BC8000D340234263402343F340234583402349B
:101BD800713402348A340234A3340234BC340234FB
:101BE800D5340234EE340234073403342034033459
:101BF80039340334523403346B34033484340334B7
:101C08009D340334B6340334CF340334E834033416
:101C180001340434303420340034003400340034C7
:101C280000340034003400343134203400340034BB
:101C380000340034003400340034003432342034AA
:101C480000340034003400340034003400340034EC
:101C580003340034003400340034003400340034D9
:101C680000340034043400340034003400340034C8
:101C7800003400340034003483120313A80028030E
:101C8800031D472E482E772E0712A901AA01831299
:101C980003132908A03E8400831300080A168A113A
:101CA80067240A128A15013083120313A90703183F
:101CB800AA0A0030AA072A08803AFF0080307F026B
:101CC800031D682E28302902031C6B2E6C2E4B2E08
:101CD800073083120313A700A70B702E000083128E
:101CE80003130716AB2E02302806031D7C2E7D2E0B
:101CF800AB2E0812AB01AC01831203132B08903EE4
:101D08008400831700080A168A1167240A128A15A4
:101D1800013083120313AB070318AC0A0030AC0779
:101D28002C08803AFF0080307F02031D9D2E28304A
:101D38002B02031CA02EA12E802E07308312031322
:101D4800A700A70BA52E000083120313081608008E
:101D580083120313B7002E03031DB32EB42E0A2FCC
:101D6800B801B901831203133708AF00B0012F0877
:101D7800A6003008A7000530A8000030A9000A1600
:101D88008A1106250A128A153A3083120313B10004
:101D98008B30B20026083107B30027080318270A3A
:101DA8003207B40038083307840039080318390AA1
:101DB8003407FF000A128A1100210A128A15B50099
:101DC8000530A6002C080A168A11D8240A128A158A
:101DD800A03E831203133807B6003608840035087E
:101DE800831380000130B8070318B90A0030B90717
:101DF8003908803AFF0080307F02031D052F053027
:101E08003802031C082F092FB62EFF2F02302E068A
:101E1800031D0F2F102F662FBA01BB018312031366
:101E28003708AF00B0012F08A6003008A70005301A
:101E3800A8000030A9000A168A1106250A128A1578
:101E48003A3083120313B1008B30B20026083107F1
:101E5800B30027080318270A3207B4003A083307E3
:101E680084003B0803183B0A3407FF000A128A1152
:101E780000210A128A15B5000530A6002C080A169A
:101E88008A11D8240A128A15903E831203133A073E
:101E9800B600360884003508831780000130BA0779
:101EA8000318BB0A0030BB073B08803AFF008030AC
:101EB8007F02031D612F05303A02031C642F652F32
:101EC800122FFF2F03302E06031D6B2F6C2FFF2FB1
:101ED800BC01BD01831203133708AF00B0012F08FE
:101EE800A6003008A7000530A8000030A9000A168F
:101EF8008A1106250A128A153A3083120313B10093
:101F08008B30B20026083107B30027080318270AC8
:101F18003207B4003C08330784003D0803183D0A23
:101F28003407FF000A128A1100210A128A15B50027
:101F38000530A6002C080A168A11D8240A128A1518
:101F4800A03E831203133C07B60036088400350808
:101F5800831380003708AF00B0012F08A6003008AF
:101F6800A7000530A8000030A9000A168A11062526
:101F78000A128A153A3083120313B1008B30B2006B
:101F880026083107B30027080318270A3207B400C8
:101F98003C08330784003D0803183D0A3407FF0056
:101FA8000A128A1100210A128A15B5000530A60006
:101FB8002C080A168A11D8240A128A15903E831210
:101FC80003133C07B60036088400350883178000E1
:101FD8000130BC070318BD0A0030BD073D08803A30
:101FE800FF0080307F02031DFB2F05303C02031CDD
:081FF800FE2FFF2F6E2F0800E1
:1028CA000334003483120313A60026089300080079
:1028DA0064008001840A04060319003404066E2C7D
:1028EA0056344F344C343A34303420342034203483
:1028FA008316031309158316031788178316031300
:10290A00061686160800831603130F100F088F3950
:10291A0040388F008F150F1D932C942C902C080093
:10292A0049344E345034553454343A3430342034E3
:10293A00013400340134003430340B108B15831603
:10294A0003130C17831203130C138316031316169F
:10295A0096160B178B1708007E088A007F088200DC
:10296A000A168A11B1240A168A118000840A0408F8
:10297A007D0603190034FF0A0319FE0AB52C8316D3
:10298A0003178801890183160313850186018701CC
:10299A0088018901831203138501860103308700A8
:1029AA0088018901080083120313A800A701281CC3
:1029BA00DF2CE02CE42C2608FF007F08A707031071
:1029CA00A60D0310A80C2808031DEC2CED2CDC2CFA
:1029DA0027080800831203131F083F3980389F0015
:1029EA00831603131F129F12831203131F08C3397E
:1029FA001C389F00831603139F17831203131F1497
:102A0A00080083120313AA01AB01261C0D2D0E2DFB
:102A1A00142D2808AA070318AB0A2908AB070130A6
:102A2A000310A80DA90DFF3E031D152D013003103B
:102A3A00A70CA60CFF3E031D1C2D26082704031D08
:102A4A00272D282D0A2D2B08A7002A08A6000800E2
:102A5A000A168A1188240A168A110A168A11C424A7
:102A6A000A168A110A168A117D240A168A110A166A
:102A7A008A11EF240A168A1183120313A601A60AE1
:102A8A00A701A801A80A00300A168A1183250A1686
:102A9A008A110A168A11A2240A168A1108008312B8
:102AAA000313C000C101C201831203134208AD001F
:102ABA004108AC004008AE0041083E07BF003F088D
:102ACA008400831300080A128A15AC260A168A1192
:102ADA00013083120313C1070318C20A0030C20768
:102AEA004208803AFF0080307F02031D7E2D0830A5
:102AFA004102031C812D822D592D080083120313D4
:102B0A00A90014082906F03929069400831603132C
:102B1A00871207120430831203132902031C962D0D
:102B2A00972DA82D83160313941387158312031365
:102B3A008719A02DA42D831203131416A72D83120F
:102B4A0003131412B72D260C83160313031C9413B4
:102B5A0003189417871183120313270C031C1412EA
:102B6A0003181416280C83160313031C14130318D2
:102B7A0014178312031327030319C42DC52DC92D56
:102B8A00871DC82DC92DDB2D83160313140EFF00D4
:102B9A00FF0C7F0C0139FF000130FF06FF0EFF0D0D
:102BAA00FF0D14087F06BF397F069400831294161E
:102BBA0008002930F000F00BE02D00008312031307
:102BCA00060EF000700C0139F100060E0139F20010
:102BDA0072077104F3007D08031DF42DF52D4A2EAA
:102BEA007303031DF92DFA2D202EFF30FB0703185E
:102BFA00FC0AFF30FC077B087C04031D052E062E09
:102C0A004A2E0330FB000030FC00650366040319FA
:102C1A000F2E102E172EFF30E5070318E60AFF3095
:102C2A00E6071B2E0430E5000030E6000130E30021
:102C3A000030E4004A2E02307306031D252E262E8C
:102C4A004A2E0130FB070318FC0A0030FC07063045
:102C5A007B067C04031D322E332E4A2E0330FB00E2
:102C6A000030FC0004306506660403193D2E3E2E32
:102C7A00452E0130E5070318E60A0030E6071B2E49
:102C8A000130E5000030E6001B2E7308FD0006083F
:102C9A0086000B1008000A168A112D250A168A11B9
:102CAA000F300A168A11C2260A168A114B3084007E
:102CBA005B3083120313C7000408C8000830C90038
:102CCA004708840083130008CA00C70A480884001A
:102CDA004A088000C80AC90B652E4B30BE00023074
:102CEA000A168A1154250A168A1153308400C830EC
:102CFA0083120313C7000408C8000830C900470834
:102D0A00840083130008CA00C70A480884004A08D6
:102D1A008000C80AC90B842E5330BE0001300A163F
:102D2A008A1154250A168A11831203136303640451
:102D3A00031DA02EA12EB02E02300A128A1540269B
:102D4A000A168A110A128A11EE200A168A118312A9
:102D5A000313E301E40101300A128A1540260A1618
:102D6A008A110A168A1150270A168A118312031326
:102D7A009F14992E0A128A11102883120313AA008B
:102D8A007030AC008030AB0010302A02031CCE2E0B
:102D9A00CF2ED12E0F30AA002A082C07AC00071517
:102DAA000716071387170815081608138817071137
:102DBA000811073083120313A700A70BE22E0000A5
:102DCA0083120313071508158713881307120812AD
:102DDA00A801A90100300A168A1167240A168A1165
:102DEA00013083120313A8070318A90A0030A907A0
:102DFA002908803AFF0080307F02031D062F283001
:102E0A002802031C092F0A2FEF2E073083120313FF
:102E1A00A700A70B0E2F000083120313071608162C
:102E2A0087178817071208122C080A168A116724AE
:102E3A000A168A11831203132C080A168A116724A8
:102E4A000A168A11073083120313A700A70B2B2F28
:102E5A0000008312031307160816071208122B081C
:102E6A000A168A1167240A168A11831203132B0879
:102E7A000A168A1167240A168A1107308312031365
:102E8A00A700A70B462F0000831203130716081684
:102E9A00871388130800831203136908803AFF0016
:102EAA0080307F02031D5B2F0A30680203185E2FF1
:102EBA005F2F682F831203136808303EC20042084E
:102ECA00BE00BF01B72F831203136908803AFF00BF
:102EDA0080307F02031D732F143068020318762F87
:102EEA00772F812F313083120313BE006808263EE4
:102EFA00C2004208BF00B72F831203136908803A41
:102F0A00FF0080307F02031D8C2F1E3068020318D9
:102F1A008F2F902F982F323083120313BE00680828
:102F2A001C3EC2007E2F831203136908803AFF00F9
:102F3A0080307F02031DA32F283068020318A62FB2
:102F4A00A72FAF2F333083120313BE006808123E37
:102F5A00C2007E2F343083120313BE006808083E75
:102F6A00C2007E2FC001C1018312031340083E3EF6
:102F7A00840083130008031DC32FC42FD72F4003D7
:102F8A004104031DC92FCA2FFF2F0530AC000030A2
:102F9A00AD00AE01AE0A20300A128A15AC260A1616
:102FAA008A11FF2F4008043EAC0041080318013E75
:102FBA00003EAD00AE01AE0A40083E3E8400000865
:102FCA000A128A15AC260A168A11013083120313D3
:102FDA00C0070318C10A0030C1074108803AFF0040
:102FEA0080307F02031DFB2F02304002031CFE2F9C
:062FFA00FF2FB92F0800B3
:04400E00D523FF3E79
:00000001FF
